:100000000C9449000C945C030C94EF020C94A00433
:100010000C94A0040C94A0040C94A0040C94A004D0
:100020000C94A0040C94A0040C94A0040C94A004C0
:100030000C94A0040C94A0040C94A0040C94A004B0
:100040000C94A0040C94A0040C9473000C94A004D1
:100050000C94A0040C94A0040C94A0040C94A00490
:100060000C94A0040C94A0040C94A0040C94A00480
:100070000C94A0040C94A0040C94BE030C94A00453
:100080000C94A0040C94A0040C94A0040100010C96
:10009000800011241FBECFEFD0E1DEBFCDBFECE862
:1000A000F0E040E017C0B591A591359125910591FB
:1000B00007FD0CC095918591EF01F92FE82F059070
:1000C0000D92A217B307D9F7FE0104C01D92A21723
:1000D000B307E1F7E139F40731F70E9427030C94E5
:0600E0007100F894FFCF4F
:1000E6001F920F920FB60F9211242F933F934F93A7
:1000F6005F936F937F938F939F93AF93BF93EF938A
:10010600FF93E0910A01F0910B018CB1EE5FFE4F77
:1001160080830E94910480910A0190910B010196BF
:1001260090930B0180930A018430910524F42CB13D
:100136002D3009F053C0892B09F450C087E00E9486
:10014600910480910A0190910B01019790930B0104
:1001560080930A010E94B702BC01990F880B990B84
:100166000E9444029B01AC0160E070E086E193E4EA
:100176000E946A0420E030E046E153E40E949504C0
:1001860020E030E04BE953E40E94990425E437E48B
:1001960042E75EE30E9499042FEC37E34BE952E411
:1001A6000E946B0422E538E34EE552E40E9499046E
:1001B6002FE632E143E05AE30E9499049B01AC0129
:1001C60060E070E080EA90E40E946A040E942904DC
:1001D6000E94070410920B0110920A01FF91EF9101
:1001E600BF91AF919F918F917F916F915F914F9149
:0E01F6003F912F910F900FBE0F901F90189504
:1002040010C00E94780458F00E94710440F029F450
:100214005F3F29F00C94860451110C9480040C94D3
:100224009D040E94E50368F39923B1F3552391F3E8
:10023400951B550BBB27AA2762177307840738F051
:100244009F5F5F4F220F331F441FAA1FA9F335D0AE
:100254000E2E3AF0E0E832D091505040E695001C62
:10026400CAF72BD0FE2F29D0660F771F881FBB1F1C
:10027400261737074807AB07B0E809F0BB0B802DFA
:10028400BF01FF2793585F4F3AF09E3F510578F026
:100294000C9486040C9480045F3FE4F3983ED4F3FA
:1002A400869577956795B795F7959F5FC9F7880FFA
:1002B400911D9695879597F90895E1E0660F771F4C
:1002C400881FBB1F621773078407BA0720F0621BDD
:0E02D400730B840BBA0BEE1F88F7E0950895AC
:1002E2000FC00E94710438F00E94780420F0952318
:1002F20011F00C9486040C949D0411240C94800437
:100302000E94E50370F3959FC1F3950F50E0551FCE
:10031200629FF001729FBB27F00DB11D639FAA2758
:10032200F00DB11DAA1F649F6627B00DA11D661FA7
:10033200829F2227B00DA11D621F739FB00DA11DC8
:10034200621F839FA00D611D221F749F3327A00D82
:10035200611D231F849F600D211D822F762F6A2F1E
:1003620011249F5750409AF0F1F088234AF0EE0F83
:10037200FF1FBB1F661F771F881F91505040A9F7B0
:100382009E3F510580F00C9486040C9480045F3FDC
:10039200E4F3983ED4F3869577956795B795F795EC
:1003A200E7959F5FC1F7FE2B880F911D9695879564
:0403B20097F908951A
:1003B60011C00E94710438F00E94780420F039F4CC
:1003C6009F3F19F426F40C949D040EF4E095E7FB88
:1003D6000C948604E92F0E94E50358F3BA176207C6
:1003E60073078407950720F079F4A6F50C947F042B
:1003F6000EF4E0950B2EBA2FA02D0B01B90190013A
:100406000C01CA01A0011124FF27591B99F0593F7D
:1004160050F4503E68F11A16F040A22F232F342FC5
:100426004427585FF3CF469537952795A795F04013
:100436005395C9F77EF41F16BA0B620B730B840B28
:10044600BAF09150A1F0FF0FBB1F661F771F881FE0
:10045600C2F70EC0BA0F621F731F841F48F4879538
:1004660077956795B795F7959E3F08F0B0CF93952A
:0E047600880F08F09927EE0F97958795089547
:10048400E89409C097FB3EF490958095709561952A
:100494007F4F8F4F9F4F9923A9F0F92F96E9BB27E0
:1004A4009395F695879577956795B795F111F8CF5C
:1004B400FAF4BB0F11F460FF1BC06F5F7F4F8F4FC7
:1004C4009F4F16C0882311F096E911C0772321F0BD
:1004D4009EE8872F762F05C0662371F096E8862F55
:1004E40070E060E02AF09A95660F771F881FDAF7AC
:0A04F400880F9695879597F90895F3
:1004FE00CF93DF931616170674F56130710569F107
:10050E00EC0160FD10C0CB0199230CF40196BC01E7
:10051E0075956795CC9FC001CD9F900D900D1124C0
:10052E000E947F021AC0CB0199230CF40196BC01E4
:10053E0075956795CC9FC001CD9F900D900D1124A0
:10054E000E947F029C01C29FC001C39F900DD29F4B
:10055E00900D112402C081E090E0DF91CF910895BB
:10056E00CF92DF92EF92FF920F931F93CF93DF9371
:10057E00C0900A01D0900B0121E0C21AD108860169
:10058E00E12CF12C19C0F801EE5FFE4FC081D0E0D6
:10059E00E097B601601B710B8AE090E00E947F022B
:1005AE009C01C29FC001C39F900DD29F900D11243C
:1005BE00E80EF91E0150110911232CF7C701DF9126
:1005CE00CF911F910F91FF90EF90DF90CF900895F4
:1005DE001F920F920FB60F9211242F933F934F93AA
:1005EE005F936F937F938F939F93AF93BF93EF938D
:1005FE00FF93809106019091070101969093070158
:10060E00809306018091060190910701C29739F4FB
:10061E0083E30E9491041092070110920601FF914C
:10062E00EF91BF91AF919F918F917F916F915F915C
:10063E004F913F912F910F900FBE0F901F901895D5
:10064E000E945C040E9439040E9442040E944B04E2
:10065E000E9454047894F8946091080170910901F5
:10066E0080E090E00E9442022AE939E945E251E435
:10067E000E9495040E948F036093000170E06A51FE
:10068E0071096732710510F410920001809100011A
:10069E0083BD1092090110920801789487EA91E6C1
:0A06AE000197F1F700C00000D6CF5D
:1006B8001F920F920FB60F9211242F933F934F93CF
:1006C8005F936F937F938F939F93AF93BF93EF93B2
:1006D800FF93809108019091090101969093090177
:1006E8008093080160E070E080E890E40E942904AB
:1006F8000E940704FF91EF91BF91AF919F918F9155
:100708007F916F915F914F913F912F910F900FBE05
:060718000F901F901895E0
:10071E000E94ED0388F09F5798F0B92F9927B75193
:10072E00B0F0E1F0660F771F881F991F1AF0BA9587
:10073E00C9F714C0B13091F00E947F04B1E0089562
:10074E000C947F04672F782F8827B85F39F0B93F54
:10075E00CCF3869577956795B395D9F73EF490953A
:0E076E008095709561957F4F8F4F9F4F089536
:10077C001F920F920FB60F9211242F933F934F930A
:10078C005F936F937F938F939F93AF93BF93EF93ED
:10079C00FF9380919C0090E00E946304FF91EF9185
:1007AC00BF91AF919F918F917F916F915F914F917D
:0E07BC003F912F910F900FBE0F901F90189538
:1007CA0057FD9058440F551F59F05F3F71F04795F8
:1007DA00880F97FB991F61F09F3F79F087950895DD
:1007EA00121613061406551FF2CF4695F1DF08C0FC
:1007FA00161617061806991FF1CF86957105610519
:04080A0008940895B1
:10080E00CF93C82F892F98B39E7F98BB80630E9489
:10081E008C048C2F0E948C0488B3816088BBCF918E
:02082E0008952B
:10083000092E0394000C11F4882352F0BB0F40F4EE
:10084000BF2B11F460FF04C06F5F7F4F8F4F9F4F2E
:02085000089509
:1008520020E030E040EA50E40E94950420E030E0DD
:1008620040E855E40E9499040E948F03CB01089549
:10087200EAE6F0E080818360808389B7816089BF86
:020882000895D7
:10088400EAE6F0E080818360808389B7826089BF73
:020894000895C5
:1008960087B3876487BB88B3887F88BB83E58DB9B8
:0208A6000895B3
:1008A80081B381BB82B382BB87B3806887BB08955D
:0E08B80085B5886485BD85B5816385BD0895CD
:0E08C60090919B0095FFFCCF80939C000895BD
:0E08D4005058BB27AA270E94DB010C94180481
:0E08E20000240A941616170618060906089533
:0E08F00000240A941216130614060506089535
:0E08FE00E894BB2766277727CB0197F908956A
:0C090C0097F99F6780E870E060E00895B4
:0A0918008FB9779BFECF8FB10895D1
:080922005D9BFECF8CB9089526
:08092A000E9402010C94180464
:080932000E9471010C941804ED
:06093A009FEF80EC089520
:040940000C94000013
:00000001FF
