:100000000C948A000C94390A0C947D050C94560BC0
:100010000C94560B0C94560B0C94560B0C94560BDC
:100020000C94560B0C94560B0C94560B0C94560BCC
:100030000C94560B0C94560B0C94560B0C94560BBC
:100040000C94560B0C94560B0C94BB000C94560B52
:100050000C94560B0C94560B0C94560B0C94560B9C
:100060000C94560B0C94560B0C94560B0C94560B8C
:100070000C94560B0C94560B0C949D040C94560B3C
:100080000C94560B0C94560B0C94560BB507970713
:1000900099079B079D079F07A107A307A507A70728
:1000A000A907AB07AD07AF07B107B3070763423630
:1000B000B79BD8A71A39685618AEBAAB558C1D3CF9
:1000C000B7CC5763BD6DEDFD753EF6177231BF00BD
:1000D0000000803F072C7AA5BA6CC590DA3B936587
:1000E000FC8BBC53F810FD3C5692834DBD879D3A66
:1000F000B63DCBC9BF5BBE73DA0FC93F01000142F9
:1001000080014203420016B00342035880035803A3
:100110005A0018B011241FBECFEFD0E1DEBFCDBF13
:10012000ECEFF0E041E017C0B591A5913591259134
:10013000059107FD0CC095918591EF01F92FE82FEE
:1001400005900D92A217B307D9F7FE0104C01D92C6
:10015000A217B307E1F7E431F40731F70E94660A0A
:080160000C94B200F894FFCFEB
:0E0168004D757374206265203C3138302100E3
:100176001F920F920FB60F921124DF92EF92FF9209
:100186000F931F932F933F934F935F936F937F9399
:100196008F939F93AF93BF93CF93DF93EF93FF9389
:1001A600E0915703F0E08CB1ED5DFE4F80830E9435
:1001B600470B609157036F5F609357036C3021F4D0
:1001C60083E291E00E94D50980915703803109F0BE
:1001D60099C3C09159038C2F82958F700E94540742
:1001E600D82E809310018C2F8F700E945407E82E12
:1001F60080931101C09158038C2F82958F700E94B5
:100206005407F82E80933A018C2F8F700E94540762
:10021600D82F809338014D2D50E0542F4427529506
:10022600507F8E2D90E0982F8827482B592B20E160
:10023600F29EC0011124482B592B4D2B509341019E
:1002460040934001E3E2F1E0848590E09C01322F87
:1002560022273295307F9585892F90E0982F882721
:10026600822B932B268560E1269F90011124822BF9
:10027600932B2785822B90933F0180933E0148174D
:10028600590709F0B6C280912301803309F017C2DD
:1002960080912401813309F012C2809125018033B7
:1002A60009F07EC180912601833309F079C18091DE
:1002B6002701813309F0E8C080912801843309F0D1
:1002C600E3C080912901813309F0DEC080912A01C3
:1002D600843309F0D9C080912B01823309F0D4C050
:1002E60080912C01803309F0CFC080912D0182339B
:1002F60009F0CAC080912E01813309F0C5C08DE096
:100306000E94470B6091560370E080E090E00E94E7
:10031600000821E73DE34CEB51E40E944F0B20E03F
:1003260030E04AEF54E40E94140B20E030E048EC41
:1003360052E40E944B0B0E94550960933B01862FA5
:1003460082958F7080933301162F1F7010933C0196
:1003560000913601F02EF694F694F694F694F09207
:1003660039010F70009322010E945407C3E2D1E0C5
:100376008E83812F0E9454078F838F2D0E945407EE
:100386008A87802F0E9454078B876CE0CE010E94DB
:10039600D50910915903812F82958F700E945407B9
:1003A600F82E80931001812F8F700E945407082F1A
:1003B60080931101E09058038E2D82958F700E94D4
:1003C6005407182F80933A018E2D8F700E94540780
:1003D600809338014F2D50E0542F44275295507F7B
:1003E600202F30E0322F2227422B532B90E1199FEA
:1003F60090011124242B352BA901482BCA01909377
:100406004101809340012C8530E0322F222732951E
:10041600307F8D8590E0982F8827282B392B8E8565
:1004260050E1859FC0011124822B932B2F85822BAF
:1004360090933F0180933E01C0E008C0EC2FF0E0AE
:10044600ED5DFE4F80810E94470BCF5FCC30B0F34D
:10045600809110010E94470B809111010E94470B69
:1004660080913A010E94470B809138010E94470B08
:100476008DE00E94470B8DE00E94470B8DE00E94A5
:10048600470B109257033EC28DE00E94470BC4E013
:100496000AC00C2F10E080E00E945407F801ED5DC1
:1004A600FE4F8083CF5FCC30A0F3C0E008C0EC2FB6
:1004B600F0E0ED5DFE4F80810E94470BCF5FCC30B0
:1004C600B0F36CE083E291E00E94D509C091590334
:1004D6008C2F82958F700E945407182F80931001DD
:1004E6008C2F8F700E945407D82F80931101009192
:1004F6005803802F82958F700E945407C82F8093CF
:100506003A01802F8F700E94540780933801412F43
:1005160050E0542F44275295507F2D2F30E0322F34
:100526002227422B532B60E1C69F90011124242BD6
:10053600352BA901482BCA019093410180934001B4
:10054600E3E2F1E0248530E0322F22273295307F36
:10055600858590E0982F8827282B392B868550E1B2
:10056600859FC0011124822B932B2785822B909384
:100576003F0180933E01812F0E94470B809111011C
:100586000E94470B80913A010E94470B80913801E7
:100596000E94470B8DE00E94470B10925703B2C191
:1005A6008DE00E94470BC4E00AC00C2F10E081E0EA
:1005B6000E945407F801ED5DFE4F8083CF5FCC307B
:1005C600A0F3C0E008C0EC2FF0E0ED5DFE4F8081A7
:1005D6000E94470BCF5FCC30B0F36CE083E291E032
:1005E6000E94D509C09159038C2F82958F700E9465
:1005F6005407182F809310018C2F8F700E94540778
:10060600D82F8093110100915803802F82958F7007
:100616000E945407C82F80933A01802F8F700E9442
:10062600540780933801412F50E0542F44275295A8
:10063600507F2D2F30E0322F2227422B532B60E1A3
:10064600C69F90011124242B352BA901482BCA01E2
:100656009093410180934001E3E2F1E0248530E08C
:10066600A901542F44275295507F9585292F30E0B4
:10067600922F88279A01282B392B968550E1959F32
:10068600C0011124822B932B2785822B90933F0147
:1006960080933E01812F0E94470B809111010E9499
:1006A600470B80913A010E94470B809138010E94C6
:1006B600470B8DE00E94470B1092570323C18DE034
:1006C6000E94470BC4E00AC00C2F10E082E00E9493
:1006D6005407F801ED5DFE4F8083CF5FCC30A0F369
:1006E600C0E008C0EC2FF0E0ED5DFE4F80810E9477
:1006F600470BCF5FCC30B0F36CE083E291E00E9411
:10070600D509C09159038C2F82958F700E9454078A
:10071600182F809310018C2F8F700E945407D82FAA
:100726008093110100915803802F82958F700E944B
:100736005407C82F80933A01802F8F700E94540768
:1007460080933801212F30E0A901542F4427529578
:10075600507F2D2F30E0322F2227242B352B60E1BE
:10076600C69FA0011124242B352BA901482BCA01B1
:100776009093410180934001E3E2F1E0848590E0AB
:100786009C01322F22273295307F9585892F90E064
:10079600982F8827822B932B268550E1259F900141
:1007A6001124822B932B2785822B90933F018093D4
:1007B6003E01812F0E94470B809111010E94470B39
:1007C60080913A010E94470B809138010E94470BA5
:1007D6008DE00E94470B1092570394C00C2F10E037
:1007E60084E00E945407F801ED5DFE4F8083CF5FE1
:1007F60001C0C4E0C83090F3E3E2F1E0D086E186C0
:10080600F286D3878DE00E94470BC0E008C0EC2F2C
:10081600F0E0ED5DFE4F80810E94470BCF5FCC304C
:10082600B0F36CE083E291E00E94D509C0915903D0
:100836008C2F82958F700E945407182F8093100179
:100846008C2F8F700E945407D82F8093110100912E
:100856005803802F82958F700E945407C82F80936B
:100866003A01802F8F700E94540780933801212F00
:1008760030E0A901542F44275295507F2D2F30E0A8
:10088600322F2227242B352B60E1C69FA00111248D
:10089600242B352BA901482BCA0190934101809343
:1008A6004001E3E2F1E0848590E09C01322F2227AB
:1008B6003295307F9585892F90E0982F8827822B57
:1008C600932B268550E1259F90011124822B932B93
:1008D6002785822B90933F0180933E01812F0E94B2
:1008E600470B809111010E94470B80913A010E94AB
:1008F600470B809138010E94470B8DE00E94470B01
:1009060010925703FF91EF91DF91CF91BF91AF9175
:100916009F918F917F916F915F914F913F912F9111
:100926001F910F91FF90EF90DF900F900FBE0F90E9
:040936001F90189561
:10093A001F920F920FB60F9211242F933F934F934A
:10094A005F936F937F938F939F93AF93BF93CF934D
:10095A00DF93EF93FF93E0914E03F0914F03809161
:10096A009C00EA5BFC4F80830E94050B80914E033A
:10097A0090914F03019690934F0380934E038430D6
:10098A0091052CF420919C002D3009F09EC0892BF2
:10099A0009F49BC087E00E94050B80914E03909159
:1009AA004F03019790934F0380934E030E94E908E7
:1009BA00EC019093370180933601BC01990F880BA3
:1009CA00990B0E9400089B01AC0160E070E084E38F
:1009DA0093E40E94130B20E030E040E850E40E94C8
:1009EA00140B20E030E044E353E40E944B0B9B01DC
:1009FA00AC0160E070E080E89FE30E94130B2AE3F9
:100A0A0030E84AE85FE30E944F0B20E030E040E81C
:100A1A005FE30E94130B0E949C0A20E030E044E34B
:100A2A0053E40E944F0B23EC35EF48E450E40E9454
:100A3A004B0B2CEB34E743E95CE30E944B0B20E0C1
:100A4A0030E64AEE56E40E944B0B0E943B089B019B
:100A5A00AC0160E070E080E89FE30E944B0B9B01D1
:100A6A00AC0160E070E080E89FE30E94130B20E095
:100A7A0030E040E751E40E944F0B609342037093C9
:100A8A004303809344039093450360934A0370930E
:100A9A004B0380934C0390934D03C53BD1054CF017
:100AAA0068E671E080E00E9484098DE00E94050BEF
:100ABA0008C020E030E040EA50E40E94CC0A0E94DC
:100ACA008B0A10924F0310924E03FF91EF91DF9120
:100ADA00CF91BF91AF919F918F917F916F915F91CC
:100AEA004F913F912F910F900FBE0F901F90189525
:100AFA001F920F920FB60F9211242F933F934F9389
:100B0A005F936F937F938F939F93AF93BF93EF936B
:100B1A00FF93809150039091510301969093510352
:100B2A008093500380915003909151030A9709F0E2
:100B3A0065C080915403909155039C01220F331F85
:100B4A00220F331F820F931F9093530380935203F4
:100B5A00809152039091530380549F419C0122F447
:100B6A0022273327281B390B2233310524F48FEF30
:100B7A00809356033BC08091520390915303805D4A
:100B8A0097409C0122F422273327281B390B223352
:100B9A0031051CF41092560329C080915403909198
:100BAA0055039C01220F331F220F331F820F931FFD
:100BBA00805D9740BC0122F466277727681B790B72
:100BCA00072E000C880B990B0E94000820E030E8E1
:100BDA004BEB55E40E944B0B20E030E04FE753E427
:100BEA000E944F0B0E9455096093560310925103BD
:100BFA00109250031092550310925403FF91EF91F3
:100C0A00BF91AF919F918F917F916F915F914F911A
:0E0C1A003F912F910F900FBE0F901F901895D5
:100C280010C00E94210B58F00E941A0B40F029F4C2
:100C38005F3F29F00C94360B51110C94290B0C943E
:100C4800530B0E94F70968F39923B1F3552391F3E5
:100C5800951B550BBB27AA2762177307840738F023
:100C68009F5F5F4F220F331F441FAA1FA9F335D080
:100C78000E2E3AF0E0E832D091505040E695001C34
:100C8800CAF72BD0FE2F29D0660F771F881FBB1FEE
:100C9800261737074807AB07B0E809F0BB0B802DCC
:100CA800BF01FF2793585F4F3AF09E3F510578F0F8
:100CB8000C94360B0C94290B5F3FE4F3983ED4F365
:100CC800869577956795B795F7959F5FC9F7880FCC
:100CD800911D9695879597F90895E1E0660F771F1E
:100CE800881FBB1F621773078407BA0720F0621BAF
:0E0CF800730B840BBA0BEE1F88F7E09508957E
:100D06000FC00E941A0B38F00E94210B20F0952389
:100D160011F00C94360B0C94530B11240C94290BE4
:100D26000E94F70970F3959FC1F3950F50E0551F88
:100D3600629FF001729FBB27F00DB11D639FAA272A
:100D4600F00DB11DAA1F649F6627B00DA11D661F79
:100D5600829F2227B00DA11D621F739FB00DA11D9A
:100D6600621F839FA00D611D221F749F3327A00D54
:100D7600611D231F849F600D211D822F762F6A2FF0
:100D860011249F5750409AF0F1F088234AF0EE0F55
:100D9600FF1FBB1F661F771F881F91505040A9F782
:100DA6009E3F510580F00C94360B0C94290B5F3F47
:100DB600E4F3983ED4F3869577956795B795F795BE
:100DC600E7959F5FC1F7FE2B880F911D9695879536
:040DD60097F90895EC
:100DDA0011C00E941A0B38F00E94210B20F039F43E
:100DEA009F3F19F426F40C94530B0EF4E095E7FB9D
:100DFA000C94360BE92F0E94F70958F3BA176207C9
:100E0A0073078407950720F079F4A6F50C94280B4C
:100E1A000EF4E0950B2EBA2FA02D0B01B90190010B
:100E2A000C01CA01A0011124FF27591B99F0593F4F
:100E3A0050F4503E68F11A16F040A22F232F342F97
:100E4A004427585FF3CF469537952795A795F040E5
:100E5A005395C9F77EF41F16BA0B620B730B840BFA
:100E6A00BAF09150A1F0FF0FBB1F661F771F881FB2
:100E7A00C2F70EC0BA0F621F731F841F48F487950A
:100E8A0077956795B795F7959E3F08F0B0CF9395FC
:0E0E9A00880F08F09927EE0F97958795089519
:100EA800813019F0E0E0F0E002C0E1E0F0E08230EB
:100EB80011F4E2E0F0E0833011F4E3E0F0E0843094
:100EC80011F4E4E0F0E0853011F4E5E0F0E086307C
:100ED80011F4E6E0F0E0873011F4E7E0F0E0883064
:100EE80011F4E8E0F0E0893011F4E9E0F0E08A304C
:100EF80011F4EAE0F0E08B3011F4EBE0F0E08C3034
:100F080011F4ECE0F0E08D3011F4EDE0F0E08E301B
:100F180011F4EEE0F0E08F3011F4EFE0F0E0EA5B7E
:100F2800FF4F0C943C0B81E3089582E3089583E31B
:100F3800089584E3089585E3089586E3089587E393
:100F4800089588E3089589E3089581E4089582E483
:100F5800089583E4089584E4089585E4089586E473
:060F6800089580E30895E6
:100F6E0006C019F416F40C94530B0C94BE0A0E948E
:100F7E00FF09B8F39923C9F3B6F39F57550B87FFB3
:100F8E000E942F0B0024A0E640EA9001805856954F
:100F9E00979528F4805C660F771F881F20F0261720
:100FAE003707480730F4621B730B840B2029312955
:100FBE004A2BA69517940794202531254A2758F7D2
:100FCE00660F771F881F20F026173707480730F463
:100FDE00620B730B840B200D311D411DA09581F703
:0E0FEE00B901842F9158880F96958795089524
:100FFC00E89409C097FB3EF49095809570956195A7
:10100C007F4F8F4F9F4F9923A9F0F92F96E9BB275C
:10101C009395F695879577956795B795F111F8CFD8
:10102C00FAF4BB0F11F460FF1BC06F5F7F4F8F4F43
:10103C009F4F16C0882311F096E911C0772321F039
:10104C009EE8872F762F05C0662371F096E8862FD1
:10105C0070E060E02AF09A95660F771F881FDAF728
:0A106C00880F9695879597F908956F
:1010760008C029F416F00C94360B0C94280B0C942B
:10108600530B0E94FF09A8F39638A0F707F80F92B2
:10109600E8942BE33AEA48EB5FE70E9496060F9244
:1010A6000F920F924DB75EB70F920E942109ECEA9C
:1010B600F0E00E94AE094F915F91EF91FF91E595A7
:1010C600EE1FFF1F49F0FE57E0684427EE0F441F4E
:1010D600FA95E1F74195550B0E9476080F9007FEA9
:0610E6000C94FD0A0895C0
:1010EC0004C00C94360B0C94BE0A0E94FF09D8F372
:1010FC009923C9F3940F511DA3F39150504094F0D0
:10110C0059F0882332F0660F771F881F915050409A
:10111C00C1F79E3F51052CF7880F911D9695879529
:10112C0097F908955F3FACF0983E9CF0BB278695ED
:10113C0077956795B79508F4B1609395C1F7BB0F98
:10114C0058F711F460FFE8CF6F5F7F4F8F4F9F4FC1
:06115C00E3CF0C94290B07
:10116200CF93DF931616170674F56130710569F196
:10117200EC0160FD10C0CB0199230CF40196BC0177
:1011820075956795CC9FC001CD9F900D900D112450
:101192000E94B1081AC0CB0199230CF40196BC013C
:1011A20075956795CC9FC001CD9F900D900D112430
:1011B2000E94B1089C01C29FC001C39F900DD29FA3
:1011C200900D112402C081E090E0DF91CF9108954B
:1011D200CF92DF92EF92FF920F931F93CF93DF9301
:1011E200C0904E03D0904F0321E0C21AD10886016D
:1011F200E12CF12C19C0F801EA5BFC4FC081D0E070
:10120200E097B601601B710B8AE090E00E94B10882
:101212009C01C29FC001C39F900DD29F900D1124CB
:10122200E80EF91E0150110911232CF7C701DF91B5
:10123200CF911F910F91FF90EF90DF90CF90089583
:10124200FA01DC01AA0FBB1F9B01AC01BF5728F4B6
:10125200222733274427507820C0B75190F4AB2F70
:101262000024469537952795011CA395D2F30020BB
:1012720071F0220F331F441FB395DAF30ED00C9492
:10128200130B61307105A0E88A07B94630F49B015F
:10129200AC016627772788279078309621F0208343
:0812A200318342835383089558
:1012AA000E94FF0988F09F5798F0B92F9927B751E4
:1012BA00B0F0E1F0660F771F881F991F1AF0BA95F0
:1012CA00C9F714C0B13091F00E94280BB1E008951B
:1012DA000C94280B672F782F8827B85F39F0B93F0D
:1012EA00CCF3869577956795B395D9F73EF49095A3
:0E12FA008095709561957F4F8F4F9F4F08959F
:10130800CF92DF92EF92CF93DF936B01E82EC0E08C
:10131800D0E012C080919B0085FFFCCFAE2DC601A6
:10132800820F931FA11D37FDAA95FC018491A7FD8B
:10133800808180939C0021968E2DB6010E94500AD0
:101348009E01C817D90730F3DF91CF91EF90DF9056
:04135800CF90089595
:10135C00DF93CF931F930F93FF92EF92DF927B015A
:10136C008C01689406C0DA2EEF010E948306FE0100
:10137C00E894A5912591359145915591A6F3EF01EE
:10138C000E94ED06FE019701A801DA9469F7DF903F
:0E139C00EF90FF900F911F91CF91DF91089578
:1013AA00FC018FEF809359038093580316C0208164
:1013BA0090915803292730E0D901AE5BBD4F9C912B
:1013CA0040915903942790935803D901AE5BBE4FBD
:1013DA009C9190935903682F31968FEF860F611174
:0413EA00E6CF0895AD
:1013EE0057FD9058440F551F59F05F3F71F04795C8
:1013FE00880F97FB991F61F09F3F79F087950895AD
:10140E00121613061406551FF2CF4695F1DF08C0CB
:10141E00161617061806991FF1CF869571056105E8
:04142E000894089581
:10143200DF93CF931F930F938B01EC01E4EDF0E068
:101442000E94AE090E94AD0A9801AE018B01EC0127
:1014520060E070E080E89FE30E94130B0E94B707F0
:101462009801AE010F911F91CF91DF910C948306E9
:101472001F920F920FB60F9211248F939F93809118
:10148200540390915503019690935503809354030E
:0E1492009F918F910F900FBE0F901F90189595
:1014A000CF92DF92EF926B01E82EA82FCB01FC01C7
:1014B0002491A7FD2081222319F00196A11DF7CFC9
:0C14C0008C199D09EF90DF90CF900895EB
:1014CC000E94F50A0E940C0B0E94D80A0E94E20AA4
:1014DC000E94EC0A0E94790A7894F8948091560341
:0614EC0083BD7894FACFE5
:1014F2001092980082E1809399001092900089B92D
:1015020098E990939A0086E080939D009AB980931F
:0415120095000895A3
:10151600CF93C82F892F98B39E7F98BB80630E9474
:10152600420B8C2F0E94420B88B3816088BBCF91FF
:02153600089516
:101538009F939F770E94190A0F90002042F49058B9
:10154800A2EA2AED3FE049E450E40E94ED060C943B
:02155800AD0ADA
:10155A00092E0394000C11F4882352F0BB0F40F4B7
:10156A00BF2B11F460FF04C06F5F7F4F8F4F9F4FF7
:02157A000895D2
:10157C009F3F31F0915020F4879577956795B795FB
:0C158C00880F911D9695879597F908959A
:101598000E944B0B20E030E040E855E40E944F0BDE
:0815A8000E945509CB010895D2
:1015B000EAE6F0E080818360808389B7816089BF3B
:0415C000789408957E
:1015C400EAE6F0E080818360808389B7826089BF26
:0415D400789408956A
:1015D80087B3876487BB88B3887F88BB83E58DB969
:0215E800089564
:1015EA0081B38C7F81BB12BA87B3806887BB0895A9
:1015FA009B01AC0160E070E080E89FE30C944B0B28
:0E160A0090919B0095FFFCCF80939C0008956B
:0E16180085B5886485BD85B5816385BD08955F
:0E1626005058BB27AA270E94ED060C94AD0A6F
:0E16340000240A9416161706180609060895D3
:0E16420000240A9412161306140605060895D5
:0E165000E894BB2766277727CB0197F908950A
:0E165E0091505040660F771F881FD2F70895F5
:0C166C0097F99F6780E870E060E0089547
:0C167800EE0FFF1F0590F491E02D099487
:0A1684008FB9779BFECF8FB1089558
:08168E005D9BFECF8CB90895AD
:081696000E9414060C94AD0A39
:08169E000E9483060C94AD0AC2
:0616A6009FEF80EC0895A7
:0416AC000C9400009A
:1016B00000C0C101C30302C2C60607C705C5C404F2
:1016C000CC0C0DCD0FCFCE0E0ACACB0BC90908C862
:1016D000D81819D91BDBDA1A1EDEDF1FDD1D1CDC52
:1016E00014D4D515D71716D6D21213D311D1D010C2
:1016F000F03031F133F3F23236F6F737F53534F4B2
:101700003CFCFD3DFF3F3EFEFA3A3BFB39F9F83821
:1017100028E8E929EB2B2AEAEE2E2FEF2DEDEC2C11
:10172000E42425E527E7E62622E2E323E12120E081
:10173000A06061A163A3A26266A6A767A56564A471
:101740006CACAD6DAF6F6EAEAA6A6BAB69A9A868E1
:1017500078B8B979BB7B7ABABE7E7FBF7DBDBC7CD1
:10176000B47475B577B7B67672B2B373B17170B041
:101770005090915193535292965657975595945431
:101780009C5C5D9D5F9F9E5E5A9A9B5B99595898A1
:10179000884849894B8B8A4A4E8E8F4F8D4D4C8C91
:1017A0004484854587474686824243834181804001
:1017B00000C1814001C0804101C0804100C1814021
:1017C00001C0804100C1814000C1814001C0804111
:1017D00001C0804100C1814000C1814001C0804101
:1017E00000C1814001C0804101C0804100C18140F1
:1017F00001C0804100C1814000C1814001C08041E1
:1018000000C1814001C0804101C0804100C18140D0
:1018100000C1814001C0804101C0804100C18140C0
:1018200001C0804100C1814000C1814001C08041B0
:1018300001C0804100C1814000C1814001C08041A0
:1018400000C1814001C0804101C0804100C1814090
:1018500000C1814001C0804101C0804100C1814080
:1018600001C0804100C1814000C1814001C0804170
:1018700000C1814001C0804101C0804100C1814060
:1018800001C0804100C1814000C1814001C0804150
:1018900001C0804100C1814000C1814001C0804140
:1018A00000C1814001C0804101C0804100C1814030
:0118B000FF38
:0118B100FF37
:00000001FF
